{
  "contractName": "Piggybank",
  "abi": [
    {
      "inputs": [
        {
          "internalType": "contract Token",
          "name": "_token",
          "type": "address"
        }
      ],
      "stateMutability": "nonpayable",
      "type": "constructor"
    },
    {
      "inputs": [],
      "name": "name",
      "outputs": [
        {
          "internalType": "string",
          "name": "",
          "type": "string"
        }
      ],
      "stateMutability": "view",
      "type": "function",
      "constant": true
    },
    {
      "inputs": [
        {
          "internalType": "address",
          "name": "",
          "type": "address"
        }
      ],
      "name": "savings",
      "outputs": [
        {
          "internalType": "uint256",
          "name": "amount",
          "type": "uint256"
        },
        {
          "internalType": "uint256",
          "name": "startTimestamp",
          "type": "uint256"
        },
        {
          "internalType": "uint256",
          "name": "endTimestamp",
          "type": "uint256"
        },
        {
          "internalType": "bool",
          "name": "withdrawed",
          "type": "bool"
        },
        {
          "internalType": "bool",
          "name": "tokenWithdrawed",
          "type": "bool"
        }
      ],
      "stateMutability": "view",
      "type": "function",
      "constant": true
    },
    {
      "inputs": [],
      "name": "token",
      "outputs": [
        {
          "internalType": "contract Token",
          "name": "",
          "type": "address"
        }
      ],
      "stateMutability": "view",
      "type": "function",
      "constant": true
    },
    {
      "inputs": [],
      "name": "showData",
      "outputs": [
        {
          "internalType": "uint256",
          "name": "",
          "type": "uint256"
        },
        {
          "internalType": "uint256",
          "name": "",
          "type": "uint256"
        }
      ],
      "stateMutability": "view",
      "type": "function",
      "constant": true
    },
    {
      "inputs": [
        {
          "internalType": "uint256",
          "name": "timeToEnd",
          "type": "uint256"
        }
      ],
      "name": "payment",
      "outputs": [],
      "stateMutability": "payable",
      "type": "function",
      "payable": true
    },
    {
      "inputs": [],
      "name": "withdraw",
      "outputs": [],
      "stateMutability": "nonpayable",
      "type": "function"
    },
    {
      "inputs": [],
      "name": "withdrawTokens",
      "outputs": [],
      "stateMutability": "nonpayable",
      "type": "function"
    }
  ],
  "bytecode": "0x60806040526040518060400160405280600981526020017f506967677962616e6b00000000000000000000000000000000000000000000008152506000908051906020019062000051929190620000cd565b503480156200005f57600080fd5b50604051620012c8380380620012c8833981810160405281019062000085919062000194565b80600160006101000a81548173ffffffffffffffffffffffffffffffffffffffff021916908373ffffffffffffffffffffffffffffffffffffffff1602179055505062000287565b828054620000db9062000208565b90600052602060002090601f016020900481019282620000ff57600085556200014b565b82601f106200011a57805160ff19168380011785556200014b565b828001600101855582156200014b579182015b828111156200014a5782518255916020019190600101906200012d565b5b5090506200015a91906200015e565b5090565b5b80821115620001795760008160009055506001016200015f565b5090565b6000815190506200018e816200026d565b92915050565b600060208284031215620001a757600080fd5b6000620001b7848285016200017d565b91505092915050565b6000620001cd82620001e8565b9050919050565b6000620001e182620001c0565b9050919050565b600073ffffffffffffffffffffffffffffffffffffffff82169050919050565b600060028204905060018216806200022157607f821691505b602082108114156200023857620002376200023e565b5b50919050565b7f4e487b7100000000000000000000000000000000000000000000000000000000600052602260045260246000fd5b6200027881620001d4565b81146200028457600080fd5b50565b61103180620002976000396000f3fe6080604052600436106100705760003560e01c80638b3c99e31161004e5780638b3c99e3146100f85780638d8f2adb14610114578063bca02ea81461012b578063fc0c546a1461015757610070565b806306fdde03146100755780631f7cdd5f146100a05780633ccfd60b146100e1575b600080fd5b34801561008157600080fd5b5061008a610182565b6040516100979190610ae5565b60405180910390f35b3480156100ac57600080fd5b506100c760048036038101906100c291906108be565b610210565b6040516100d8959493929190610bd0565b60405180910390f35b3480156100ed57600080fd5b506100f6610260565b005b610112600480360381019061010d9190610910565b6103f4565b005b34801561012057600080fd5b506101296104cf565b005b34801561013757600080fd5b506101406107c7565b60405161014e929190610ba7565b60405180910390f35b34801561016357600080fd5b5061016c610844565b6040516101799190610aca565b60405180910390f35b6000805461018f90610df3565b80601f01602080910402602001604051908101604052809291908181526020018280546101bb90610df3565b80156102085780601f106101dd57610100808354040283529160200191610208565b820191906000526020600020905b8154815290600101906020018083116101eb57829003601f168201915b505050505081565b60026020528060005260406000206000915090508060000154908060010154908060020154908060030160009054906101000a900460ff16908060030160019054906101000a900460ff16905085565b6000600260003373ffffffffffffffffffffffffffffffffffffffff1673ffffffffffffffffffffffffffffffffffffffff168152602001908152602001600020905042816002015411156102ea576040517f08c379a00000000000000000000000000000000000000000000000000000000081526004016102e190610b07565b60405180910390fd5b6000816000015411610331576040517f08c379a000000000000000000000000000000000000000000000000000000000815260040161032890610b27565b60405180910390fd5b600015158160030160009054906101000a900460ff16151514610389576040517f08c379a000000000000000000000000000000000000000000000000000000000815260040161038090610b87565b60405180910390fd5b60018160030160006101000a81548160ff0219169083151502179055503373ffffffffffffffffffffffffffffffffffffffff166108fc82600001549081150290604051600060405180830381858888f193505050501580156103f0573d6000803e3d6000fd5b5050565b6040518060a0016040528034815260200142815260200182426104179190610c3f565b815260200160001515815260200160001515815250600260003373ffffffffffffffffffffffffffffffffffffffff1673ffffffffffffffffffffffffffffffffffffffff16815260200190815260200160002060008201518160000155602082015181600101556040820151816002015560608201518160030160006101000a81548160ff02191690831515021790555060808201518160030160016101000a81548160ff02191690831515021790555090505050565b6000600260003373ffffffffffffffffffffffffffffffffffffffff1673ffffffffffffffffffffffffffffffffffffffff16815260200190815260200160002090504281600201541115610559576040517f08c379a000000000000000000000000000000000000000000000000000000000815260040161055090610b07565b60405180910390fd5b600015158160030160019054906101000a900460ff161515146105b1576040517f08c379a00000000000000000000000000000000000000000000000000000000081526004016105a890610b47565b60405180910390fd5b600115158160030160009054906101000a900460ff16151514610609576040517f08c379a000000000000000000000000000000000000000000000000000000000815260040161060090610b67565b60405180910390fd5b6000633b9aca00826001015483600201546106249190610d20565b83600001546106339190610cc6565b61063d9190610c95565b905080600160009054906101000a900473ffffffffffffffffffffffffffffffffffffffff1673ffffffffffffffffffffffffffffffffffffffff166370a08231306040518263ffffffff1660e01b815260040161069b9190610a86565b60206040518083038186803b1580156106b357600080fd5b505afa1580156106c7573d6000803e3d6000fd5b505050506040513d601f19601f820116820180604052508101906106eb9190610939565b10156106f657600080fd5b60018260030160016101000a81548160ff021916908315150217905550600160009054906101000a900473ffffffffffffffffffffffffffffffffffffffff1673ffffffffffffffffffffffffffffffffffffffff1663a9059cbb33836040518363ffffffff1660e01b8152600401610770929190610aa1565b602060405180830381600087803b15801561078a57600080fd5b505af115801561079e573d6000803e3d6000fd5b505050506040513d601f19601f820116820180604052508101906107c291906108e7565b505050565b6000806000600260003373ffffffffffffffffffffffffffffffffffffffff1673ffffffffffffffffffffffffffffffffffffffff16815260200190815260200160002090508060030160009054906101000a900460ff1661083757806000015481600201549250925050610840565b60008092509250505b9091565b600160009054906101000a900473ffffffffffffffffffffffffffffffffffffffff1681565b60008135905061087981610fb6565b92915050565b60008151905061088e81610fcd565b92915050565b6000813590506108a381610fe4565b92915050565b6000815190506108b881610fe4565b92915050565b6000602082840312156108d057600080fd5b60006108de8482850161086a565b91505092915050565b6000602082840312156108f957600080fd5b60006109078482850161087f565b91505092915050565b60006020828403121561092257600080fd5b600061093084828501610894565b91505092915050565b60006020828403121561094b57600080fd5b6000610959848285016108a9565b91505092915050565b61096b81610d54565b82525050565b61097a81610d66565b82525050565b61098981610d9c565b82525050565b600061099a82610c23565b6109a48185610c2e565b93506109b4818560208601610dc0565b6109bd81610eb2565b840191505092915050565b60006109d5601583610c2e565b91506109e082610ec3565b602082019050919050565b60006109f8601c83610c2e565b9150610a0382610eec565b602082019050919050565b6000610a1b601983610c2e565b9150610a2682610f15565b602082019050919050565b6000610a3e602383610c2e565b9150610a4982610f3e565b604082019050919050565b6000610a61601883610c2e565b9150610a6c82610f8d565b602082019050919050565b610a8081610d92565b82525050565b6000602082019050610a9b6000830184610962565b92915050565b6000604082019050610ab66000830185610962565b610ac36020830184610a77565b9392505050565b6000602082019050610adf6000830184610980565b92915050565b60006020820190508181036000830152610aff818461098f565b905092915050565b60006020820190508181036000830152610b20816109c8565b9050919050565b60006020820190508181036000830152610b40816109eb565b9050919050565b60006020820190508181036000830152610b6081610a0e565b9050919050565b60006020820190508181036000830152610b8081610a31565b9050919050565b60006020820190508181036000830152610ba081610a54565b9050919050565b6000604082019050610bbc6000830185610a77565b610bc96020830184610a77565b9392505050565b600060a082019050610be56000830188610a77565b610bf26020830187610a77565b610bff6040830186610a77565b610c0c6060830185610971565b610c196080830184610971565b9695505050505050565b600081519050919050565b600082825260208201905092915050565b6000610c4a82610d92565b9150610c5583610d92565b9250827fffffffffffffffffffffffffffffffffffffffffffffffffffffffffffffffff03821115610c8a57610c89610e25565b5b828201905092915050565b6000610ca082610d92565b9150610cab83610d92565b925082610cbb57610cba610e54565b5b828204905092915050565b6000610cd182610d92565b9150610cdc83610d92565b9250817fffffffffffffffffffffffffffffffffffffffffffffffffffffffffffffffff0483118215151615610d1557610d14610e25565b5b828202905092915050565b6000610d2b82610d92565b9150610d3683610d92565b925082821015610d4957610d48610e25565b5b828203905092915050565b6000610d5f82610d72565b9050919050565b60008115159050919050565b600073ffffffffffffffffffffffffffffffffffffffff82169050919050565b6000819050919050565b6000610da782610dae565b9050919050565b6000610db982610d72565b9050919050565b60005b83811015610dde578082015181840152602081019050610dc3565b83811115610ded576000848401525b50505050565b60006002820490506001821680610e0b57607f821691505b60208210811415610e1f57610e1e610e83565b5b50919050565b7f4e487b7100000000000000000000000000000000000000000000000000000000600052601160045260246000fd5b7f4e487b7100000000000000000000000000000000000000000000000000000000600052601260045260246000fd5b7f4e487b7100000000000000000000000000000000000000000000000000000000600052602260045260246000fd5b6000601f19601f8301169050919050565b7f546f6f206561726c7920746f2077697468647261770000000000000000000000600082015250565b7f5468657265206973206e6f7468696e6720746f20776974686472617700000000600082015250565b7f546f6b656e7320616c7265616479207769746864726177656400000000000000600082015250565b7f466972737420796f75206e65656420746f20776974686472617720796f75722060008201527f4554480000000000000000000000000000000000000000000000000000000000602082015250565b7f4d6f6e657920616c726561647920776974686472617765640000000000000000600082015250565b610fbf81610d54565b8114610fca57600080fd5b50565b610fd681610d66565b8114610fe157600080fd5b50565b610fed81610d92565b8114610ff857600080fd5b5056fea26469706673582212202788771f8263068e0a50b242f7ccce3f43241a6ffd51fe204305d1164af2a6fe64736f6c63430008040033",
  "immutableReferences": {},
  "source": "pragma solidity ^0.8.4;\n\nimport \"./Token.sol\";\n\ncontract Piggybank {\n    string public name = \"Piggybank\";\n    Token public token;\n\n    struct Savings {\n        uint256 amount;\n        uint256 startTimestamp;\n        uint256 endTimestamp;\n        bool withdrawed;\n        bool tokenWithdrawed;\n    }\n\n    mapping(address => Savings) public savings;\n\n    constructor(Token _token) {\n        token = _token;\n    }\n\n    function showData() public view returns (uint256, uint256) {\n        Savings storage savedMoney = savings[msg.sender];\n        if (!savedMoney.withdrawed) {\n            return (savedMoney.amount, savedMoney.endTimestamp);\n        } else {\n            return (0, 0);\n        }\n    }\n\n    function payment(uint256 timeToEnd) external payable {\n        savings[msg.sender] = Savings(\n            msg.value,\n            block.timestamp,\n            block.timestamp + timeToEnd,\n            false,\n            false\n        );\n    }\n\n    function withdraw() external {\n        Savings storage savedMoney = savings[msg.sender];\n        require(\n            savedMoney.endTimestamp <= block.timestamp,\n            \"Too early to withdraw\"\n        );\n        require(savedMoney.amount > 0, \"There is nothing to withdraw\");\n        require(savedMoney.withdrawed == false, \"Money already withdrawed\");\n        savedMoney.withdrawed = true;\n        payable(msg.sender).transfer(savedMoney.amount);\n    }\n\n    function withdrawTokens() external {\n        Savings storage savedMoney = savings[msg.sender];\n        require(\n            savedMoney.endTimestamp <= block.timestamp,\n            \"Too early to withdraw\"\n        );\n        require(\n            savedMoney.tokenWithdrawed == false,\n            \"Tokens already withdrawed\"\n        );\n        require(\n            savedMoney.withdrawed == true,\n            \"First you need to withdraw your ETH\"\n        );\n\n        uint256 tokenAmount = (savedMoney.amount *\n            (savedMoney.endTimestamp - savedMoney.startTimestamp)) / 1000000000;\n\n        // Require that Piggybank has enough tokens\n        require(token.balanceOf(address(this)) >= tokenAmount);\n\n        savedMoney.tokenWithdrawed = true;\n\n        // Transfer tokens to the user\n        token.transfer(msg.sender, tokenAmount);\n    }\n}\n",
  "sourcePath": "/Users/tumer/Desktop/JS/truffle-start/contracts/Piggybank.sol",
  "compiler": {
    "name": "solc",
    "version": "0.8.4+commit.c7e474f2.Emscripten.clang"
  },
  "schemaVersion": "3.4.2",
  "updatedAt": "2021-08-06T06:49:25.597Z",
  "networkType": "ethereum",
  "devdoc": {
    "kind": "dev",
    "methods": {},
    "version": 1
  },
  "userdoc": {
    "kind": "user",
    "methods": {},
    "version": 1
  }
}